:1000000090EF00F00000000000EF00F000000000A2
:0A0010000000000000000000F3D71C
:10001C0015C083FF808A809484908494410E0C6E6A
:10002C00EE0E0D6E0D2EFED70C2EFCD7000016C05A
:10003C0083FF809A808484908494410E0C6EEE0E23
:10004C000D6E0D2EFED70C2EFCD7000017C083FFB3
:10005C00809A809484808494410E0C6EEE0E0D6E0A
:10006C000D2EFED70C2EFCD7000018C083FF809AF3
:10007C00809484908484410E0C6EEE0E0D6E0D2EC9
:0A008C00FED70C2EFCD70000120076
:1000960019C083FF808A809484908494410E0C6EEC
:1000A600EE0E0D6E0D2EFED70C2EFCD700001AC0DC
:1000B60083FF809A808484908494410E0C6EEE0EA9
:1000C6000D6E0D2EFED70C2EFCD700001BC083FF35
:1000D600809A809484808494410E0C6EEE0E0D6E90
:1000E6000D2EFED70C2EFCD700001CC083FF809A75
:1000F600809484908484410E0C6EEE0E0D6E0D2E4F
:0A010600FED70C2EFCD700001200FB
:100110000900F5CFE6FF0006FBE10106F9E1120058
:10012000710E156E770E166E390E176E770E186EED
:10013000390E196E3F0E1A6E150E1B6E730E1C6E65
:100140001D6AFF0E936E926A966A956AFF0E816E23
:10015000400E836EFF0E806EFF0E846E070EB46E2F
:100160000F0EC16EF19E81B002D0010E1D6E81B2E4
:1001700002D0020E1D6E1D50010A01E14FDF1D501D
:0A018000020A01E188DFEFD7FFD784
:020000040030CA
:0E000000000C1F1EFF8381FF0FC00FE00F409A
:00000001FF
