:1000000089EF00F00000000000EF00F000000000A9
:0A0010000000000000000000F3D71C
:10001C00150EE96E000EEA6E3550E926000E35BE5F
:10002C00FF0EEA22EECF83FF808A80948490849422
:10003C00210E0C6E760E0D6E0D2EFED70C2EFCD7EF
:10004C0000003550010F006E016A000E35BEFF0E28
:10005C000122150E0024E96E000E0120EA6EEECF8F
:10006C0083FF809A808484908494210E0C6E760E8B
:10007C000D6E0D2EFED70C2EFCD70000020E352473
:10008C00006E000E35BEFF0E016E000E0122150E25
:10009C000024E96E000E0120EA6EEECF83FF809AF9
:1000AC00809484808494210E0C6E760E0D6E0D2E31
:1000BC00FED70C2EFCD70000030E3524006E000E6C
:1000CC0035BEFF0E016E000E0122150E0024E96EE6
:1000DC00000E0120EA6EEECF83FF809A809484900C
:1000EC008484210E0C6E760E0D6E0D2EFED70C2E0A
:0600FC00FCD70000120019
:100102000900F5CFE6FF0006FBE10106F9E1120066
:10011200D5EC00F0326A040E336E346AFF0E936E31
:10012200926A966A956AFF0E816E836A070EB46EB2
:100132000F0EC16EF19E33C035F06FDF342A81B0ED
:1001420005D03252010ED8A4000E326E3250010A8E
:1001520005E10D0E345C02E3332A346A3350190A86
:1001620012E1809A8094849084941A0E0B6E5E0E33
:100172000C6E6E0E0D6E0D2EFED70C2EFCD70B2EB6
:0A018200FAD70000336AD7D7FFD781
:1001AA0010EE15F01D0E006E010E016E8C0EF66E2D
:0E01BA00010EF76E000EF86E81EC00F01200E0
:10018C000000000039067954390677005E77003993
:0D019C003F37733E787739773F0000000051
:020000040030CA
:0E000000000C1F1EFF8381FF0FC00FE00F409A
:00000001FF
