:100000000EEF00F00000000000EF00F00000000024
:0A0010000000000000000000F3D71C
:10001C00156A166A956AFF0E836E0F0EC16E070E77
:10002C00B46EF19E831C026E8350000A05E1010E32
:10003C00156E000E166E05D08350FF0A02E1156A8C
:10004C00166A000E161802E1000E15181DE18350F9
:10005C00FF0AD8B4026A080E0B6E9D0E0C6E050ECC
:10006C000D6E0D2EFED70C2EFCD70B2EFAD70000E2
:10007C000000800E0224016E01C002F0011C836E90
:10008C0001C002F00232029E000E161802E1010EAF
:10009C0015181BE1080E0B6E9D0E0C6E050E0D6EE9
:1000AC000D2EFED70C2EFCD70B2EFAD7000000001D
:1000BC008350000AD8B4026A022A02C083FF0236B7
:0E00CC000290010E156E000E166EAED7FFD715
:020000040030CA
:0E000000000C1F1EFF8381FF0FC00FE00F409A
:00000001FF
