:1000000045EF00F00000000000EF00F000000000ED
:0A0010000000000000000000F3D71C
:10001C00150EE96E000EEA6E2450E926000E24BE81
:10002C00FF0EEA22EECF83FF84808494410E0C6E87
:10003C00EE0E0D6E0D2EFED70C2EFCD70000150EFD
:10004C00E96E000EEA6E2350E926000E23BEFF0E69
:10005C00EA22EECF83FF84908484410E0C6EEE0E68
:0E006C000D6E0D2EFED70C2EFCD700001200DC
:10007A000900F5CFE6FF0006FBE10106F9E11200EF
:10008A003F0E156E060E166E5B0E176E4F0E186E2D
:10009A00660E196E6D0E1A6E7D0E1B6E070E1C6EA5
:1000AA007F0E1D6E6F0E1E6E1F6A206A216A226AFB
:1000BA00FF0E936E966A956AFF0E816E836A070E2B
:1000CA00B46E0F0EC16EF19E848084841FC023F02B
:1000DA0020C024F09EDF222A81B002D0010E216EB8
:1000EA0081B202D0020E216E81B402D0030E216EBB
:1000FA001F500A0A02E1202A1F6A20500A0AD8B4AD
:10010A00206A2150010A06E12250320A02E11F2A1E
:10011A00226A11D02150020A06E12250190A02E18C
:10012A001F2A226A08D02150030A05E122500C0A2C
:0A013A0002E11F2A226ACAD7FFD78C
:020000040030CA
:0E000000000C1F1EFF8381FF0FC00FE00F409A
:00000001FF
