:1000000016EF00F00000000000EF00F0000000001C
:0A0010000000000000000000F3D71C
:10001C000900F5CFE6FF0006FBE10106F9E112004D
:10002C00380E156E770E166E7C0E176E5C0E186EF3
:10003C00500E196E770E1A6E780E1B6E5C0E1C6EBF
:10004C00500E1D6E040E1E6E5C0E1F6E206A216A11
:10005C00FF0E936E926A956AFF0E816E816A070E8F
:10006C00B46E0F0EC16EF19E808A81B002D0010E6B
:10007C00206E81A2206A2050010A2CE121500A082E
:10008C0011E2809A330E0B6EBB0E0C6EDF0E0D6EF2
:10009C000D2EFED70C2EFCD70B2EFAD7000000002D
:1000AC00216A808A150EE96E000EEA6E2150E9264F
:1000BC00D8B0EA2AEECF83FF0D0E0B6EAF0E0C6E8E
:1000CC00B60E0D6E0D2EFED70C2EFCD70B2EFAD7BE
:0800DC000000212ACAD7FFD75A
:020000040030CA
:0E000000000C1F1EFF8381FF0FC00FE00F409A
:00000001FF
