:100000000EEF00F00000000000EF00F00000000024
:0A0010000000000000000000F3D71C
:10001C00166A176A1590FF0E936E956AFF0E836E23
:10002C00FF0E816E0F0EC16E070EB46EF19E81B085
:10003C0008D015A003D0FF0E836E1590010E166E1E
:10004C00176A81B208D015A003D00F0E836E1590DD
:10005C00010E176E166A81B40FD0070E0B6E580E78
:10006C000C6E590E0D6E0D2EFED70C2EFCD70B2ED2
:10007C00FAD70000000015701650010A010ED8A422
:10008C00000E016E15B002D0D88001D0D890006A55
:10009C00D8B0002A0150001617E00D0E0B6EAF0EF3
:1000AC000C6EB60E0D6E0D2EFED70C2EFCD70B2E35
:1000BC00FAD700008350F00A04E0F00E835C01E3F1
:1000CC0002D0FF0E836E83061750010A010ED8A4CE
:1000DC00000E016E15B002D0D88001D0D890006A05
:1000EC00D8B0002A0150001618E00D0E0B6EAF0EA2
:1000FC000C6EB60E0D6E0D2EFED70C2EFCD70B2EE5
:10010C00FAD700008350FF0A04E00F0E835C01E372
:0E011C0002D00F0E836E100E832689D7FFD7F8
:020000040030CA
:0E000000000C1F1EFF8381FF0FC00FE00F409A
:00000001FF
