:100000000EEF00F00000000000EF00F00000000024
:0A0010000000000000000000F3D71C
:10001C00156A166A956AFF0E936EFF0E836EFF0EBD
:10002C00816E0F0EC16E070EB46EF19E81B003D0BF
:10003C00010E156E166A81B203D0010E166E156A8A
:10004C001550010A1BE183728370020E0B6E960E23
:10005C000C6ED50E0D6E0D2EFED70C2EFCD70B2E66
:10006C00FAD78372020E0B6E960E0C6ED50E0D6EB9
:10007C000D2EFED70C2EFCD70B2EFAD71650010ADC
:10008C001BE183708372020E0B6E960E0C6ED50EF6
:10009C000D6E0D2EFED70C2EFCD70B2EFAD78370BF
:1000AC00020E0B6E960E0C6ED50E0D6E0D2EFED72F
:0C00BC000C2EFCD70B2EFAD7B9D7FFD7BB
:020000040030CA
:0E000000000C1F1EFF8381FF0FC00FE00F409A
:00000001FF
