:0400000024EF00F0F9
:1000080000C015F0F2A411D0F294162A172A16503F
:10001800FA0A02E1166A83701750320A02E1176A77
:100028008372F60ED76E3C0ED66E15C000F0110026
:100038000900F5CFE6FF0006FBE10106F9E1120031
:10004800166A176AFF0E936E956AFF0E816EFF0E91
:10005800836E0F0EC16E070EB46EF19EF28EF28C97
:10006800F28A800ED56EF60ED76E3C0ED66EFFD78E
:02007800FFD7B0
:020000040030CA
:0E000000000C1F1EFF8381FF0FC00FE00F409A
:00000001FF
