:040000004BEF00F0D2
:100008000BC017F00CC016F00DC015F0F0A01BD0F7
:10001800186AF090F00E956E140E185C11E2831EAB
:10002800070E0B6E580E0C6E590E0D6E0D2EFED768
:100038000C2EFCD70B2EFAD700000000182AECD79C
:10004800956AFF0E836EF0A21BD0196AF0920F0E0C
:10005800956E140E195C11E2831E070E0B6E580E76
:100068000C6E590E0D6E0D2EFED70C2EFCD70B2ED6
:10007800FAD700000000192AECD7956AFF0E836EA4
:0E00880017C00BF016C00CF015C00DF01100E3
:10009600FF0E936E956AFF0E816EFF0E836E070E3E
:1000A600B46EF28EF28C0F0EC16EF086F088F18A75
:1000B600F188D09E831E070E0B6E580E0C6E590EDD
:1000C6000D6E0D2EFED70C2EFCD70B2EFAD7000088
:0600D6000000F0D7FFD787
:020000040030CA
:0E000000000C1F1EFF8381FF0FC00FE00F409A
:00000001FF
