:1000000016EF00F00000000000EF00F0000000001C
:0A0010000000000000000000F3D71C
:10001C000900F5CFE6FF0006FBE10106F9E112004D
:10002C0053EC00F0256A266A0F0E936E966A956A59
:10003C00FF0E816EFF0E836E070EB46E0F0EC16E37
:10004C00F19E8484811C016E01C025F0015026189C
:10005C001AE025C026F0150EE96E000EEA6E25504A
:10006C00E926D8B0EA2AEECF83FF020E0B6E450EBE
:10007C000C6EA90E0D6E0D2EFED70C2EFCD70B2E72
:0A008C00FAD700000000DED7FFD70E
:1000A60010EE15F0100E006E010E016E960EF66E35
:0E00B600000EF76E000EF86E0EEC00F0120059
:100096003F305B4F666D7D077F6F777C395E797188
:020000040030CA
:0E000000000C1F1EFF8381FF0FC00FE00F409A
:00000001FF
