:100000004BEF04F00000000000EF00F000000000E3
:0A0010000000000000000000F3D71C
:10001C000B820BAE18EF00F00368026801680068F1
:08002C000A360232FF0E120039
:0E003400026A016A006A086A036A000E12007E
:100042000B840BAE2CEF00F0010E036E026A016A04
:0A005200006A0A360232FF0E1200A7
:08005C000AAE029E000E120024
:100064000CB074EF00F00CA21AEF01F00E6A000E4F
:1000740002648BEF00F0F00E0214D8A456EF00F0E7
:10008400023A01380F0B02260138F00B016E0038DA
:100094000F0B01260038F00B006E08380F0B0026FA
:1000A4000838F00B086E0E84D89002BE6FEF00F093
:1000B40008360036013602360E2A02BE6FEF00F013
:1000C40008360036013602360E2A02BE6FEF00F003
:1000D40008360036013602360E2A0E50036410EF3D
:1000E40001F0035E0BBC08AE15EF01F0D880800E62
:1000F40008640030000E002201220222D8A015EF6D
:1001040001F0023201320032034A1AEF01F015EF16
:1001140001F001C002F000C001F008C000F0086A5C
:10012400000E0E860264C2EF00F0F00E0214D8A492
:10013400AAEF00F0023A01380F0B02260138F00B47
:10014400016E00380F0B01260038F00B006E0E8490
:10015400D89002BE6FEF00F00036013602360E2A48
:1001640002BE6FEF00F00036013602360E2A02BEE0
:100174006FEF00F00036013602360E2A6FEF00F002
:1001840001C002F000C001F0006A000E0E960E8855
:100194000264EFEF00F0F00E0214D8A4DAEF00F0DE
:1001A400023A01380F0B02260138F00B016E0E845F
:1001B400D89002BE6FEF00F0013602360E2A02BE5E
:1001C4006FEF00F0013602360E2A02BE6FEF00F028
:1001D400013602360E2A6FEF00F001C002F0016A08
:1001E400000E0E8602641FEF01F0F00E0214D8A474
:1001F400FEEF00F0023A0E84D89002BE6FEF00F0DA
:1002040002360E2A02BE6FEF00F002360E2A02BE3C
:100214006FEF00F002360E2A6FEF00F0010E0C6E45
:100224000EDF22EF01F0020E0C6E16DF22EF01F05A
:10023400040E0C6EF1DE22EF01F0080E0C6EF8DEF7
:020244001200A6
:100246000B800BAE2FEF01F0026A0AAEFF0E026EB4
:0C025600016E006E0A360232FF0E12002C
:10026200086A096A000E07620364B6EF01F00250E1
:1002720006180A6E075003267E0ED8A047EF01F03B
:10028200035ED8B0BAEF01F04BEF01F0035ED8A0E5
:10029200BEEF01F0028E068E02C00EF001C00BF01E
:1002A20000C00DF000500402F4CF0CF00150050222
:1002B200F4CF00F0F3CF08F00402F3500C26F45010
:1002C2000822000E00220D500502F3500C26F450B5
:1002D2000822000E002202500402F3500826F450B5
:1002E200002202500502016A000E0122F35000268C
:1002F200F45001220D500602F3500826F450002259
:10030200026A000E012202220B500602F35000265E
:10031200F4500122000E02220E500602F350012672
:10032200F450022202BE9EEF01F00836003601367A
:1003320002360306D8B4BEEF01F0B1EF01F0D88067
:10034200800E08640030000E002201220222D8A092
:10035200B1EF01F0023201320032034ABAEF01F08A
:100362000AAE029E000EC0EF01F0010E62DEC0EF87
:1003720001F0020E52DEC0EF01F0040E61DE120047
:1003820000C008F00B6A0C6A9E0E036E0A6A026ACB
:0C039200016A006A020E0C6E64DE1200AC
:10039E000B6A0350D8B415EF02F002500A6E028EAB
:1003AE008E0E035E03AE19EF02F0036C080E035CB3
:1003BE00D8A0F4EF01F0036E013602C001F0026A1C
:1003CE00080E035CD8A0F4EF01F0036E0136016A4B
:1003DE000350D8A4D890FEEF01F00350D8B4FEEF2E
:1003EE0001F0D89002320132032EF8EF01F00BBC6F
:1003FE0001A00BEF02F0D8A00BEF02F0012AD8B447
:10040E00022A02BE28EF02F00AAE2DEF02F0021E03
:10041E00011E012AD8B4022A2DEF02F0026A016AE7
:10042E002DEF02F00B800BAE31EF02F0026A0AAE36
:10043E0031EF02F0FF0E026E016E0A36023231EF1C
:10044E0002F0010E0C6EF8DE33EF02F0000E0C6EB1
:10045E0033EF02F0FF0E0C6E0150006E0250016E73
:02046E0012007A
:10047000025006180E6E086A096A0B6A0350076478
:100480002BEF03F006500A6E068E028E03500B6EA1
:100490000750036E000E0B647BEF02F00B50075EFB
:1004A000D8B41CEF03F0070E0764EAEF02F0075E12
:1004B00000C008F001C000F002C001F0026A074E5F
:1004C0001CEF03F00764BFEF02F0075E00C008F006
:1004D00001C000F0016A074E1CEF03F007649DEFB6
:1004E00002F0075E00C008F0006A074E1CEF03F040
:1004F000076484EF02F00AC002F005C001F004C0F6
:1005000000F0086A48EF04F0030E07648FEF02F072
:10051000075E08380F0B086E074E1CEF03F0D890EB
:100520000832074E1CEF03F0D8900832074E1CEF3C
:1005300003F0D89008321CEF03F0030E0764AEEF0F
:1005400002F0075E08380F0B086E0038F00B082623
:1005500000380F0B006E074E1CEF03F0D8900032EE
:100560000832074E1CEF03F0D89000320832074ED5
:100570001CEF03F0D890003208321CEF03F0030E9A
:100580000764D6EF02F0075E08380F0B086E0038DC
:10059000F00B082600380F0B006E0138F00B002618
:1005A00001380F0B016E074E1CEF03F0D89001329B
:1005B00000320832074E1CEF03F0D89001320032AF
:1005C0000832074E1CEF03F0D89001320032083297
:1005D0001CEF03F0030E076407EF03F0075E083813
:1005E0000F0B086E0038F00B082600380F0B006E5A
:1005F0000138F00B002601380F0B016E0238F00BAA
:10060000012602380F0B026E074E1CEF03F0D89044
:100610000232013200320832074E1CEF03F0D8904C
:100620000232013200320832074E1CEF03F0D8903C
:100630000232013200320832096A000E0EAE10EFAB
:1006400004F0081E001E011E021E082A00220122BC
:10065000022210EF04F00750D8A431EF03F048EF66
:1006600004F0096A02C00AF0028E068E0750035C8D
:10067000076ED8B403EF04F0070E0764D1EF03F060
:10068000075E0450096E0550046E0650056E066A3A
:10069000074E03EF04F0070E0764A6EF03F0075EB2
:1006A0000450096E0550046E056A074E03EF04F00E
:1006B000070E076484EF03F0075E0450096E046AB6
:1006C000074E03EF04F0070E07646BEF03F00AC058
:1006D00002F048EF04F0030E076476EF03F0075EC4
:1006E00009380F0B096E074E03EF04F0D89009325A
:1006F000074E03EF04F0D8900932074E03EF04F0E1
:10070000D890093203EF04F0030E076495EF03F06D
:10071000075E09380F0B096E0438F00B0926043800
:100720000F0B046E074E03EF04F0D8900432093229
:10073000074E03EF04F0D89004320932074E03EF5E
:1007400004F0D8900432093203EF04F0030E07647A
:10075000BDEF03F0075E09380F0B096E0438F00B8C
:10076000092604380F0B046E0538F00B04260538F3
:100770000F0B056E074E03EF04F0D89005320432DC
:100780000932074E03EF04F0D890053204320932E3
:10079000074E03EF04F0D89005320432093203EF1C
:1007A00004F0030E0764EEEF03F0075E09380F0B49
:1007B000096E0438F00B092604380F0B046E053857
:1007C000F00B042605380F0B056E0638F00B0526D6
:1007D00006380F0B066E074E03EF04F0D890063272
:1007E000053204320932074E03EF04F0D890063286
:1007F000053204320932074E03EF04F0D890063276
:10080000053204320932086A000E0EAE10EF04F011
:10081000091E041E051E061E092A042205220622A0
:1008200009500826045000220550012206500222D9
:100830000EBE27EF04F0D8A036EF04F002320132EA
:1008400000320832033E36EF04F042EF04F0D8B035
:100850003CEF04F0000E081E001E011E021E082AB6
:100860000022012202220A7E3CEF04F0010E0C6EEF
:1008700032EC00F04AEF04F0020E0C6E32EC00F0A5
:100880004AEF04F0040E0C6E0EEC00F04AEF04F098
:06089000000E0C6E1200C8
:10089600956A0F0E936EFF0E836EFF0E816E0F0E1E
:1008A600C16E070EB46EF19E811C006E67DD660E8A
:1008B600046E660E056E860E066E810E076ECEDC23
:1008C600000E046E000E056E780E066E830E076E21
:0C08D600CCDD62DD001C836EE7D7FFD78D
:020000040030CA
:0E000000000C1F1EFF8381FF0FC00FE00F409A
:00000001FF
