:1000000071EF00F0000000000EEF00F000000000B3
:0C00100000000000000000003CEF00F0C9
:10001C0000C01EF00BC01DF00CC01CF00DC01BF07E
:10002C00F0A01BD0206AF090F00E956E140E205CA0
:10003C0011E2831E070E0B6E580E0C6E590E0D6ED0
:10004C000D2EFED70C2EFCD70B2EFAD7000000007D
:10005C00202AECD7956AFF0E836E1EC000F01DC0DF
:0C006C000BF01CC00CF01BC00DF01100CC
:100078000BC01AF00CC019F00DC018F0156ED8CFCF
:1000880016F0E0CF17F0F0A21BD01F6AF0920F0E07
:10009800956E140E1F5C11E2831E070E0B6E580E30
:1000A8000C6E590E0D6E0D2EFED70C2EFCD70B2E96
:1000B800FAD7000000001F2AECD7956AFF0E836E5E
:1000C8001750E06E1650D86E153A15381AC00BF056
:0A00D80019C00CF018C00DF0100064
:1000E200FF0E936E956AFF0E816EFF0E836E070EF2
:1000F200B46EF28EF28C0F0EC16ED08EF086F08846
:10010200F08CF09EF18AF188831E070E0B6E580E5A
:100112000C6E590E0D6E0D2EFED70C2EFCD70B2E2B
:0A012200FAD700000000F0D7FFD765
:020000040030CA
:0E000000000C1F1EFF8381FF0FC00FE00F409A
:00000001FF
